{
  "_format": "hh-sol-artifact-1",
  "contractName": "BTTBurnVault",
  "sourceName": "contracts/BTTBurnVault.sol",
  "abi": [
    {
      "inputs": [
        {
          "internalType": "address",
          "name": "_addrBtt",
          "type": "address"
        },
        {
          "internalType": "address",
          "name": "_addrWbtc",
          "type": "address"
        }
      ],
      "stateMutability": "nonpayable",
      "type": "constructor"
    },
    {
      "inputs": [
        {
          "internalType": "address",
          "name": "target",
          "type": "address"
        }
      ],
      "name": "AddressEmptyCode",
      "type": "error"
    },
    {
      "inputs": [
        {
          "internalType": "address",
          "name": "account",
          "type": "address"
        }
      ],
      "name": "AddressInsufficientBalance",
      "type": "error"
    },
    {
      "inputs": [],
      "name": "FailedInnerCall",
      "type": "error"
    },
    {
      "inputs": [
        {
          "internalType": "address",
          "name": "token",
          "type": "address"
        }
      ],
      "name": "SafeERC20FailedOperation",
      "type": "error"
    },
    {
      "anonymous": false,
      "inputs": [
        {
          "indexed": false,
          "internalType": "uint256",
          "name": "bttBurned",
          "type": "uint256"
        },
        {
          "indexed": false,
          "internalType": "uint256",
          "name": "wbtcWithdrew",
          "type": "uint256"
        }
      ],
      "name": "burnMade",
      "type": "event"
    },
    {
      "inputs": [
        {
          "internalType": "uint256",
          "name": "amount",
          "type": "uint256"
        }
      ],
      "name": "backingWithdraw",
      "outputs": [],
      "stateMutability": "nonpayable",
      "type": "function"
    },
    {
      "inputs": [],
      "name": "wbtcAddress",
      "outputs": [
        {
          "internalType": "address",
          "name": "",
          "type": "address"
        }
      ],
      "stateMutability": "view",
      "type": "function"
    }
  ],
  "bytecode": "0x60c06040523480156200001157600080fd5b5060405162000f3a38038062000f3a833981810160405281019062000037919062000235565b600073ffffffffffffffffffffffffffffffffffffffff168273ffffffffffffffffffffffffffffffffffffffff1603620000a9576040517f08c379a0000000000000000000000000000000000000000000000000000000008152600401620000a090620002dd565b60405180910390fd5b600073ffffffffffffffffffffffffffffffffffffffff168173ffffffffffffffffffffffffffffffffffffffff16036200011b576040517f08c379a000000000000000000000000000000000000000000000000000000000815260040162000112906200034f565b60405180910390fd5b8173ffffffffffffffffffffffffffffffffffffffff1660a08173ffffffffffffffffffffffffffffffffffffffff16815250508073ffffffffffffffffffffffffffffffffffffffff1660808173ffffffffffffffffffffffffffffffffffffffff1681525050806000806101000a81548173ffffffffffffffffffffffffffffffffffffffff021916908373ffffffffffffffffffffffffffffffffffffffff160217905550505062000371565b600080fd5b600073ffffffffffffffffffffffffffffffffffffffff82169050919050565b6000620001fd82620001d0565b9050919050565b6200020f81620001f0565b81146200021b57600080fd5b50565b6000815190506200022f8162000204565b92915050565b600080604083850312156200024f576200024e620001cb565b5b60006200025f858286016200021e565b925050602062000272858286016200021e565b9150509250929050565b600082825260208201905092915050565b7f43616e6e6f74207365742042545420746f207a65726f20616464726573730000600082015250565b6000620002c5601e836200027c565b9150620002d2826200028d565b602082019050919050565b60006020820190508181036000830152620002f881620002b6565b9050919050565b7f43616e6e6f7420736574207742544320746f207a65726f206164647265737300600082015250565b600062000337601f836200027c565b91506200034482620002ff565b602082019050919050565b600060208201905081810360008301526200036a8162000328565b9050919050565b60805160a051610b8f620003ab60003960008181609d01526103440152600081816101730152818161025001526103d60152610b8f6000f3fe608060405234801561001057600080fd5b50600436106100365760003560e01c806361a2ac391461003b578063631ac53d14610059575b600080fd5b610043610075565b6040516100509190610766565b60405180910390f35b610073600480360381019061006e91906107bc565b610099565b005b60008054906101000a900473ffffffffffffffffffffffffffffffffffffffff1681565b60007f000000000000000000000000000000000000000000000000000000000000000073ffffffffffffffffffffffffffffffffffffffff166318160ddd6040518163ffffffff1660e01b8152600401602060405180830381865afa158015610106573d6000803e3d6000fd5b505050506040513d601f19601f8201168201806040525081019061012a91906107fe565b90506000811161016f576040517f08c379a0000000000000000000000000000000000000000000000000000000008152600401610166906108ae565b60405180910390fd5b60007f000000000000000000000000000000000000000000000000000000000000000073ffffffffffffffffffffffffffffffffffffffff166370a08231306040518263ffffffff1660e01b81526004016101ca9190610766565b602060405180830381865afa1580156101e7573d6000803e3d6000fd5b505050506040513d601f19601f8201168201806040525081019061020b91906107fe565b1161024b576040517f08c379a00000000000000000000000000000000000000000000000000000000081526004016102429061091a565b60405180910390fd5b6000817f000000000000000000000000000000000000000000000000000000000000000073ffffffffffffffffffffffffffffffffffffffff166370a08231306040518263ffffffff1660e01b81526004016102a79190610766565b602060405180830381865afa1580156102c4573d6000803e3d6000fd5b505050506040513d601f19601f820116820180604052508101906102e891906107fe565b846102f39190610969565b6102fd91906109da565b905060008111610342576040517f08c379a00000000000000000000000000000000000000000000000000000000081526004016103399061091a565b60405180910390fd5b7f000000000000000000000000000000000000000000000000000000000000000073ffffffffffffffffffffffffffffffffffffffff166379cc679033856040518363ffffffff1660e01b815260040161039d929190610a1a565b600060405180830381600087803b1580156103b757600080fd5b505af11580156103cb573d6000803e3d6000fd5b5050505061041a33827f000000000000000000000000000000000000000000000000000000000000000073ffffffffffffffffffffffffffffffffffffffff166104589092919063ffffffff16565b7fa7802709064d2296b0feea2cbd6d8f02e54d7800a7334e545c4c2535cc304f45838260405161044b929190610a43565b60405180910390a1505050565b6104d2838473ffffffffffffffffffffffffffffffffffffffff1663a9059cbb858560405160240161048b929190610a1a565b604051602081830303815290604052915060e01b6020820180517bffffffffffffffffffffffffffffffffffffffffffffffffffffffff83818316178352505050506104d7565b505050565b6000610502828473ffffffffffffffffffffffffffffffffffffffff1661056e90919063ffffffff16565b905060008151141580156105275750808060200190518101906105259190610aa4565b155b1561056957826040517f5274afe70000000000000000000000000000000000000000000000000000000081526004016105609190610766565b60405180910390fd5b505050565b606061057c83836000610584565b905092915050565b6060814710156105cb57306040517fcd7860590000000000000000000000000000000000000000000000000000000081526004016105c29190610766565b60405180910390fd5b6000808573ffffffffffffffffffffffffffffffffffffffff1684866040516105f49190610b42565b60006040518083038185875af1925050503d8060008114610631576040519150601f19603f3d011682016040523d82523d6000602084013e610636565b606091505b5091509150610646868383610651565b925050509392505050565b60608261066657610661826106e0565b6106d8565b6000825114801561068e575060008473ffffffffffffffffffffffffffffffffffffffff163b145b156106d057836040517f9996b3150000000000000000000000000000000000000000000000000000000081526004016106c79190610766565b60405180910390fd5b8190506106d9565b5b9392505050565b6000815111156106f35780518082602001fd5b6040517f1425ea4200000000000000000000000000000000000000000000000000000000815260040160405180910390fd5b600073ffffffffffffffffffffffffffffffffffffffff82169050919050565b600061075082610725565b9050919050565b61076081610745565b82525050565b600060208201905061077b6000830184610757565b92915050565b600080fd5b6000819050919050565b61079981610786565b81146107a457600080fd5b50565b6000813590506107b681610790565b92915050565b6000602082840312156107d2576107d1610781565b5b60006107e0848285016107a7565b91505092915050565b6000815190506107f881610790565b92915050565b60006020828403121561081457610813610781565b5b6000610822848285016107e9565b91505092915050565b600082825260208201905092915050565b7f556e61626c6520746f2077697468647261772077697468203020746f74616c2060008201527f737570706c79206f662042545420746f6b656e73000000000000000000000000602082015250565b600061089860348361082b565b91506108a38261083c565b604082019050919050565b600060208201905081810360008301526108c78161088b565b9050919050565b7f4e6f7468696e6720746f20776974686472617700000000000000000000000000600082015250565b600061090460138361082b565b915061090f826108ce565b602082019050919050565b60006020820190508181036000830152610933816108f7565b9050919050565b7f4e487b7100000000000000000000000000000000000000000000000000000000600052601160045260246000fd5b600061097482610786565b915061097f83610786565b925082820261098d81610786565b915082820484148315176109a4576109a361093a565b5b5092915050565b7f4e487b7100000000000000000000000000000000000000000000000000000000600052601260045260246000fd5b60006109e582610786565b91506109f083610786565b925082610a00576109ff6109ab565b5b828204905092915050565b610a1481610786565b82525050565b6000604082019050610a2f6000830185610757565b610a3c6020830184610a0b565b9392505050565b6000604082019050610a586000830185610a0b565b610a656020830184610a0b565b9392505050565b60008115159050919050565b610a8181610a6c565b8114610a8c57600080fd5b50565b600081519050610a9e81610a78565b92915050565b600060208284031215610aba57610ab9610781565b5b6000610ac884828501610a8f565b91505092915050565b600081519050919050565b600081905092915050565b60005b83811015610b05578082015181840152602081019050610aea565b60008484015250505050565b6000610b1c82610ad1565b610b268185610adc565b9350610b36818560208601610ae7565b80840191505092915050565b6000610b4e8284610b11565b91508190509291505056fea2646970667358221220bac5fcd7766baa2d44f316bc36ae93e432d71026f7d1d5d95184befb7d279fc964736f6c63430008140033",
  "linkReferences": {},
  "deployedLinkReferences": {}
}