{
  "_format": "hh-sol-artifact-1",
  "contractName": "BetterCoin",
  "sourceName": "contracts/BetterCoin.sol",
  "abi": [
    {
      "inputs": [],
      "stateMutability": "nonpayable",
      "type": "constructor"
    },
    {
      "inputs": [
        {
          "internalType": "address",
          "name": "spender",
          "type": "address"
        },
        {
          "internalType": "uint256",
          "name": "allowance",
          "type": "uint256"
        },
        {
          "internalType": "uint256",
          "name": "needed",
          "type": "uint256"
        }
      ],
      "name": "ERC20InsufficientAllowance",
      "type": "error"
    },
    {
      "inputs": [
        {
          "internalType": "address",
          "name": "sender",
          "type": "address"
        },
        {
          "internalType": "uint256",
          "name": "balance",
          "type": "uint256"
        },
        {
          "internalType": "uint256",
          "name": "needed",
          "type": "uint256"
        }
      ],
      "name": "ERC20InsufficientBalance",
      "type": "error"
    },
    {
      "inputs": [
        {
          "internalType": "address",
          "name": "approver",
          "type": "address"
        }
      ],
      "name": "ERC20InvalidApprover",
      "type": "error"
    },
    {
      "inputs": [
        {
          "internalType": "address",
          "name": "receiver",
          "type": "address"
        }
      ],
      "name": "ERC20InvalidReceiver",
      "type": "error"
    },
    {
      "inputs": [
        {
          "internalType": "address",
          "name": "sender",
          "type": "address"
        }
      ],
      "name": "ERC20InvalidSender",
      "type": "error"
    },
    {
      "inputs": [
        {
          "internalType": "address",
          "name": "spender",
          "type": "address"
        }
      ],
      "name": "ERC20InvalidSpender",
      "type": "error"
    },
    {
      "anonymous": false,
      "inputs": [
        {
          "indexed": true,
          "internalType": "address",
          "name": "owner",
          "type": "address"
        },
        {
          "indexed": true,
          "internalType": "address",
          "name": "spender",
          "type": "address"
        },
        {
          "indexed": false,
          "internalType": "uint256",
          "name": "value",
          "type": "uint256"
        }
      ],
      "name": "Approval",
      "type": "event"
    },
    {
      "anonymous": false,
      "inputs": [
        {
          "indexed": true,
          "internalType": "address",
          "name": "from",
          "type": "address"
        },
        {
          "indexed": true,
          "internalType": "address",
          "name": "to",
          "type": "address"
        },
        {
          "indexed": false,
          "internalType": "uint256",
          "name": "value",
          "type": "uint256"
        }
      ],
      "name": "Transfer",
      "type": "event"
    },
    {
      "inputs": [],
      "name": "MAX_SUPPLY",
      "outputs": [
        {
          "internalType": "uint256",
          "name": "",
          "type": "uint256"
        }
      ],
      "stateMutability": "view",
      "type": "function"
    },
    {
      "inputs": [
        {
          "internalType": "address",
          "name": "owner",
          "type": "address"
        },
        {
          "internalType": "address",
          "name": "spender",
          "type": "address"
        }
      ],
      "name": "allowance",
      "outputs": [
        {
          "internalType": "uint256",
          "name": "",
          "type": "uint256"
        }
      ],
      "stateMutability": "view",
      "type": "function"
    },
    {
      "inputs": [
        {
          "internalType": "address",
          "name": "spender",
          "type": "address"
        },
        {
          "internalType": "uint256",
          "name": "value",
          "type": "uint256"
        }
      ],
      "name": "approve",
      "outputs": [
        {
          "internalType": "bool",
          "name": "",
          "type": "bool"
        }
      ],
      "stateMutability": "nonpayable",
      "type": "function"
    },
    {
      "inputs": [
        {
          "internalType": "address",
          "name": "account",
          "type": "address"
        }
      ],
      "name": "balanceOf",
      "outputs": [
        {
          "internalType": "uint256",
          "name": "",
          "type": "uint256"
        }
      ],
      "stateMutability": "view",
      "type": "function"
    },
    {
      "inputs": [
        {
          "internalType": "uint256",
          "name": "amount",
          "type": "uint256"
        }
      ],
      "name": "burn",
      "outputs": [],
      "stateMutability": "nonpayable",
      "type": "function"
    },
    {
      "inputs": [
        {
          "internalType": "address",
          "name": "account",
          "type": "address"
        },
        {
          "internalType": "uint256",
          "name": "amount",
          "type": "uint256"
        }
      ],
      "name": "burnFrom",
      "outputs": [],
      "stateMutability": "nonpayable",
      "type": "function"
    },
    {
      "inputs": [],
      "name": "decimals",
      "outputs": [
        {
          "internalType": "uint8",
          "name": "",
          "type": "uint8"
        }
      ],
      "stateMutability": "view",
      "type": "function"
    },
    {
      "inputs": [],
      "name": "name",
      "outputs": [
        {
          "internalType": "string",
          "name": "",
          "type": "string"
        }
      ],
      "stateMutability": "view",
      "type": "function"
    },
    {
      "inputs": [],
      "name": "symbol",
      "outputs": [
        {
          "internalType": "string",
          "name": "",
          "type": "string"
        }
      ],
      "stateMutability": "view",
      "type": "function"
    },
    {
      "inputs": [],
      "name": "totalSupply",
      "outputs": [
        {
          "internalType": "uint256",
          "name": "",
          "type": "uint256"
        }
      ],
      "stateMutability": "view",
      "type": "function"
    },
    {
      "inputs": [
        {
          "internalType": "address",
          "name": "to",
          "type": "address"
        },
        {
          "internalType": "uint256",
          "name": "value",
          "type": "uint256"
        }
      ],
      "name": "transfer",
      "outputs": [
        {
          "internalType": "bool",
          "name": "",
          "type": "bool"
        }
      ],
      "stateMutability": "nonpayable",
      "type": "function"
    },
    {
      "inputs": [
        {
          "internalType": "address",
          "name": "from",
          "type": "address"
        },
        {
          "internalType": "address",
          "name": "to",
          "type": "address"
        },
        {
          "internalType": "uint256",
          "name": "value",
          "type": "uint256"
        }
      ],
      "name": "transferFrom",
      "outputs": [
        {
          "internalType": "bool",
          "name": "",
          "type": "bool"
        }
      ],
      "stateMutability": "nonpayable",
      "type": "function"
    }
  ],
  "bytecode": "0x60806040523480156200001157600080fd5b506040518060400160405280600a81526020017f426574746572436f696e000000000000000000000000000000000000000000008152506040518060400160405280600381526020017f425454000000000000000000000000000000000000000000000000000000000081525081600390816200008f9190620005fe565b508060049081620000a19190620005fe565b505050620000c1336a115eec47f6cf7e35000000620000c760201b60201c565b6200081c565b600073ffffffffffffffffffffffffffffffffffffffff168273ffffffffffffffffffffffffffffffffffffffff16036200013c5760006040517fec442f050000000000000000000000000000000000000000000000000000000081526004016200013391906200072a565b60405180910390fd5b62000150600083836200015460201b60201c565b5050565b600073ffffffffffffffffffffffffffffffffffffffff168373ffffffffffffffffffffffffffffffffffffffff1603620001aa5780600260008282546200019d919062000776565b9250508190555062000280565b60008060008573ffffffffffffffffffffffffffffffffffffffff1673ffffffffffffffffffffffffffffffffffffffff1681526020019081526020016000205490508181101562000239578381836040517fe450d38c0000000000000000000000000000000000000000000000000000000081526004016200023093929190620007c2565b60405180910390fd5b8181036000808673ffffffffffffffffffffffffffffffffffffffff1673ffffffffffffffffffffffffffffffffffffffff16815260200190815260200160002081905550505b600073ffffffffffffffffffffffffffffffffffffffff168273ffffffffffffffffffffffffffffffffffffffff1603620002cb578060026000828254039250508190555062000318565b806000808473ffffffffffffffffffffffffffffffffffffffff1673ffffffffffffffffffffffffffffffffffffffff168152602001908152602001600020600082825401925050819055505b8173ffffffffffffffffffffffffffffffffffffffff168373ffffffffffffffffffffffffffffffffffffffff167fddf252ad1be2c89b69c2b068fc378daa952ba7f163c4a11628f55a4df523b3ef83604051620003779190620007ff565b60405180910390a3505050565b600081519050919050565b7f4e487b7100000000000000000000000000000000000000000000000000000000600052604160045260246000fd5b7f4e487b7100000000000000000000000000000000000000000000000000000000600052602260045260246000fd5b600060028204905060018216806200040657607f821691505b6020821081036200041c576200041b620003be565b5b50919050565b60008190508160005260206000209050919050565b60006020601f8301049050919050565b600082821b905092915050565b600060088302620004867fffffffffffffffffffffffffffffffffffffffffffffffffffffffffffffffff8262000447565b62000492868362000447565b95508019841693508086168417925050509392505050565b6000819050919050565b6000819050919050565b6000620004df620004d9620004d384620004aa565b620004b4565b620004aa565b9050919050565b6000819050919050565b620004fb83620004be565b620005136200050a82620004e6565b84845462000454565b825550505050565b600090565b6200052a6200051b565b62000537818484620004f0565b505050565b5b818110156200055f576200055360008262000520565b6001810190506200053d565b5050565b601f821115620005ae57620005788162000422565b620005838462000437565b8101602085101562000593578190505b620005ab620005a28562000437565b8301826200053c565b50505b505050565b600082821c905092915050565b6000620005d360001984600802620005b3565b1980831691505092915050565b6000620005ee8383620005c0565b9150826002028217905092915050565b620006098262000384565b67ffffffffffffffff8111156200062557620006246200038f565b5b620006318254620003ed565b6200063e82828562000563565b600060209050601f83116001811462000676576000841562000661578287015190505b6200066d8582620005e0565b865550620006dd565b601f198416620006868662000422565b60005b82811015620006b05784890151825560018201915060208501945060208101905062000689565b86831015620006d05784890151620006cc601f891682620005c0565b8355505b6001600288020188555050505b505050505050565b600073ffffffffffffffffffffffffffffffffffffffff82169050919050565b60006200071282620006e5565b9050919050565b620007248162000705565b82525050565b600060208201905062000741600083018462000719565b92915050565b7f4e487b7100000000000000000000000000000000000000000000000000000000600052601160045260246000fd5b60006200078382620004aa565b91506200079083620004aa565b9250828201905080821115620007ab57620007aa62000747565b5b92915050565b620007bc81620004aa565b82525050565b6000606082019050620007d9600083018662000719565b620007e86020830185620007b1565b620007f76040830184620007b1565b949350505050565b6000602082019050620008166000830184620007b1565b92915050565b610fbe806200082c6000396000f3fe608060405234801561001057600080fd5b50600436106100b45760003560e01c806342966c681161007157806342966c681461019157806370a08231146101ad57806379cc6790146101dd57806395d89b41146101f9578063a9059cbb14610217578063dd62ed3e14610247576100b4565b806306fdde03146100b9578063095ea7b3146100d757806318160ddd1461010757806323b872dd14610125578063313ce5671461015557806332cb6b0c14610173575b600080fd5b6100c1610277565b6040516100ce9190610be5565b60405180910390f35b6100f160048036038101906100ec9190610ca0565b610309565b6040516100fe9190610cfb565b60405180910390f35b61010f61032c565b60405161011c9190610d25565b60405180910390f35b61013f600480360381019061013a9190610d40565b610336565b60405161014c9190610cfb565b60405180910390f35b61015d610365565b60405161016a9190610daf565b60405180910390f35b61017b61036e565b6040516101889190610d25565b60405180910390f35b6101ab60048036038101906101a69190610dca565b61037d565b005b6101c760048036038101906101c29190610df7565b610391565b6040516101d49190610d25565b60405180910390f35b6101f760048036038101906101f29190610ca0565b6103d9565b005b6102016103f9565b60405161020e9190610be5565b60405180910390f35b610231600480360381019061022c9190610ca0565b61048b565b60405161023e9190610cfb565b60405180910390f35b610261600480360381019061025c9190610e24565b6104ae565b60405161026e9190610d25565b60405180910390f35b60606003805461028690610e93565b80601f01602080910402602001604051908101604052809291908181526020018280546102b290610e93565b80156102ff5780601f106102d4576101008083540402835291602001916102ff565b820191906000526020600020905b8154815290600101906020018083116102e257829003601f168201915b5050505050905090565b600080610314610535565b905061032181858561053d565b600191505092915050565b6000600254905090565b600080610341610535565b905061034e85828561054f565b6103598585856105e3565b60019150509392505050565b60006012905090565b6a115eec47f6cf7e3500000081565b61038e610388610535565b826106d7565b50565b60008060008373ffffffffffffffffffffffffffffffffffffffff1673ffffffffffffffffffffffffffffffffffffffff168152602001908152602001600020549050919050565b6103eb826103e5610535565b8361054f565b6103f582826106d7565b5050565b60606004805461040890610e93565b80601f016020809104026020016040519081016040528092919081815260200182805461043490610e93565b80156104815780601f1061045657610100808354040283529160200191610481565b820191906000526020600020905b81548152906001019060200180831161046457829003601f168201915b5050505050905090565b600080610496610535565b90506104a38185856105e3565b600191505092915050565b6000600160008473ffffffffffffffffffffffffffffffffffffffff1673ffffffffffffffffffffffffffffffffffffffff16815260200190815260200160002060008373ffffffffffffffffffffffffffffffffffffffff1673ffffffffffffffffffffffffffffffffffffffff16815260200190815260200160002054905092915050565b600033905090565b61054a8383836001610759565b505050565b600061055b84846104ae565b90507fffffffffffffffffffffffffffffffffffffffffffffffffffffffffffffffff81146105dd57818110156105cd578281836040517ffb8f41b20000000000000000000000000000000000000000000000000000000081526004016105c493929190610ed3565b60405180910390fd5b6105dc84848484036000610759565b5b50505050565b600073ffffffffffffffffffffffffffffffffffffffff168373ffffffffffffffffffffffffffffffffffffffff16036106555760006040517f96c6fd1e00000000000000000000000000000000000000000000000000000000815260040161064c9190610f0a565b60405180910390fd5b600073ffffffffffffffffffffffffffffffffffffffff168273ffffffffffffffffffffffffffffffffffffffff16036106c75760006040517fec442f050000000000000000000000000000000000000000000000000000000081526004016106be9190610f0a565b60405180910390fd5b6106d2838383610930565b505050565b600073ffffffffffffffffffffffffffffffffffffffff168273ffffffffffffffffffffffffffffffffffffffff16036107495760006040517f96c6fd1e0000000000000000000000000000000000000000000000000000000081526004016107409190610f0a565b60405180910390fd5b61075582600083610930565b5050565b600073ffffffffffffffffffffffffffffffffffffffff168473ffffffffffffffffffffffffffffffffffffffff16036107cb5760006040517fe602df050000000000000000000000000000000000000000000000000000000081526004016107c29190610f0a565b60405180910390fd5b600073ffffffffffffffffffffffffffffffffffffffff168373ffffffffffffffffffffffffffffffffffffffff160361083d5760006040517f94280d620000000000000000000000000000000000000000000000000000000081526004016108349190610f0a565b60405180910390fd5b81600160008673ffffffffffffffffffffffffffffffffffffffff1673ffffffffffffffffffffffffffffffffffffffff16815260200190815260200160002060008573ffffffffffffffffffffffffffffffffffffffff1673ffffffffffffffffffffffffffffffffffffffff16815260200190815260200160002081905550801561092a578273ffffffffffffffffffffffffffffffffffffffff168473ffffffffffffffffffffffffffffffffffffffff167f8c5be1e5ebec7d5bd14f71427d1e84f3dd0314c0f7b2291e5b200ac8c7c3b925846040516109219190610d25565b60405180910390a35b50505050565b600073ffffffffffffffffffffffffffffffffffffffff168373ffffffffffffffffffffffffffffffffffffffff16036109825780600260008282546109769190610f54565b92505081905550610a55565b60008060008573ffffffffffffffffffffffffffffffffffffffff1673ffffffffffffffffffffffffffffffffffffffff16815260200190815260200160002054905081811015610a0e578381836040517fe450d38c000000000000000000000000000000000000000000000000000000008152600401610a0593929190610ed3565b60405180910390fd5b8181036000808673ffffffffffffffffffffffffffffffffffffffff1673ffffffffffffffffffffffffffffffffffffffff16815260200190815260200160002081905550505b600073ffffffffffffffffffffffffffffffffffffffff168273ffffffffffffffffffffffffffffffffffffffff1603610a9e5780600260008282540392505081905550610aeb565b806000808473ffffffffffffffffffffffffffffffffffffffff1673ffffffffffffffffffffffffffffffffffffffff168152602001908152602001600020600082825401925050819055505b8173ffffffffffffffffffffffffffffffffffffffff168373ffffffffffffffffffffffffffffffffffffffff167fddf252ad1be2c89b69c2b068fc378daa952ba7f163c4a11628f55a4df523b3ef83604051610b489190610d25565b60405180910390a3505050565b600081519050919050565b600082825260208201905092915050565b60005b83811015610b8f578082015181840152602081019050610b74565b60008484015250505050565b6000601f19601f8301169050919050565b6000610bb782610b55565b610bc18185610b60565b9350610bd1818560208601610b71565b610bda81610b9b565b840191505092915050565b60006020820190508181036000830152610bff8184610bac565b905092915050565b600080fd5b600073ffffffffffffffffffffffffffffffffffffffff82169050919050565b6000610c3782610c0c565b9050919050565b610c4781610c2c565b8114610c5257600080fd5b50565b600081359050610c6481610c3e565b92915050565b6000819050919050565b610c7d81610c6a565b8114610c8857600080fd5b50565b600081359050610c9a81610c74565b92915050565b60008060408385031215610cb757610cb6610c07565b5b6000610cc585828601610c55565b9250506020610cd685828601610c8b565b9150509250929050565b60008115159050919050565b610cf581610ce0565b82525050565b6000602082019050610d106000830184610cec565b92915050565b610d1f81610c6a565b82525050565b6000602082019050610d3a6000830184610d16565b92915050565b600080600060608486031215610d5957610d58610c07565b5b6000610d6786828701610c55565b9350506020610d7886828701610c55565b9250506040610d8986828701610c8b565b9150509250925092565b600060ff82169050919050565b610da981610d93565b82525050565b6000602082019050610dc46000830184610da0565b92915050565b600060208284031215610de057610ddf610c07565b5b6000610dee84828501610c8b565b91505092915050565b600060208284031215610e0d57610e0c610c07565b5b6000610e1b84828501610c55565b91505092915050565b60008060408385031215610e3b57610e3a610c07565b5b6000610e4985828601610c55565b9250506020610e5a85828601610c55565b9150509250929050565b7f4e487b7100000000000000000000000000000000000000000000000000000000600052602260045260246000fd5b60006002820490506001821680610eab57607f821691505b602082108103610ebe57610ebd610e64565b5b50919050565b610ecd81610c2c565b82525050565b6000606082019050610ee86000830186610ec4565b610ef56020830185610d16565b610f026040830184610d16565b949350505050565b6000602082019050610f1f6000830184610ec4565b92915050565b7f4e487b7100000000000000000000000000000000000000000000000000000000600052601160045260246000fd5b6000610f5f82610c6a565b9150610f6a83610c6a565b9250828201905080821115610f8257610f81610f25565b5b9291505056fea264697066735822122024d6dbc5ff64ee9e5a5de98c3fb8fb857153bd88c26b8204bc00e8bdfd74f9a964736f6c63430008140033",
  "linkReferences": {},
  "deployedLinkReferences": {}
}