{
  "_format": "hh-sol-artifact-1",
  "contractName": "BTTMarket",
  "sourceName": "contracts/BTTMarket.sol",
  "abi": [
    {
      "inputs": [
        {
          "internalType": "address",
          "name": "_addrBtt",
          "type": "address"
        },
        {
          "internalType": "address",
          "name": "_addrMarketToken",
          "type": "address"
        },
        {
          "internalType": "uint256",
          "name": "_marketTokenPer100Btt",
          "type": "uint256"
        },
        {
          "internalType": "uint256",
          "name": "_fee",
          "type": "uint256"
        }
      ],
      "stateMutability": "nonpayable",
      "type": "constructor"
    },
    {
      "inputs": [
        {
          "internalType": "address",
          "name": "target",
          "type": "address"
        }
      ],
      "name": "AddressEmptyCode",
      "type": "error"
    },
    {
      "inputs": [
        {
          "internalType": "address",
          "name": "account",
          "type": "address"
        }
      ],
      "name": "AddressInsufficientBalance",
      "type": "error"
    },
    {
      "inputs": [],
      "name": "FailedInnerCall",
      "type": "error"
    },
    {
      "inputs": [
        {
          "internalType": "address",
          "name": "owner",
          "type": "address"
        }
      ],
      "name": "OwnableInvalidOwner",
      "type": "error"
    },
    {
      "inputs": [
        {
          "internalType": "address",
          "name": "account",
          "type": "address"
        }
      ],
      "name": "OwnableUnauthorizedAccount",
      "type": "error"
    },
    {
      "inputs": [
        {
          "internalType": "address",
          "name": "token",
          "type": "address"
        }
      ],
      "name": "SafeERC20FailedOperation",
      "type": "error"
    },
    {
      "anonymous": false,
      "inputs": [
        {
          "indexed": true,
          "internalType": "address",
          "name": "previousOwner",
          "type": "address"
        },
        {
          "indexed": true,
          "internalType": "address",
          "name": "newOwner",
          "type": "address"
        }
      ],
      "name": "OwnershipTransferStarted",
      "type": "event"
    },
    {
      "anonymous": false,
      "inputs": [
        {
          "indexed": true,
          "internalType": "address",
          "name": "previousOwner",
          "type": "address"
        },
        {
          "indexed": true,
          "internalType": "address",
          "name": "newOwner",
          "type": "address"
        }
      ],
      "name": "OwnershipTransferred",
      "type": "event"
    },
    {
      "anonymous": false,
      "inputs": [
        {
          "indexed": false,
          "internalType": "uint256",
          "name": "marketTokenFromUser",
          "type": "uint256"
        },
        {
          "indexed": false,
          "internalType": "uint256",
          "name": "bttToUser",
          "type": "uint256"
        }
      ],
      "name": "userBought",
      "type": "event"
    },
    {
      "anonymous": false,
      "inputs": [
        {
          "indexed": false,
          "internalType": "uint256",
          "name": "marketTokenToUser",
          "type": "uint256"
        },
        {
          "indexed": false,
          "internalType": "uint256",
          "name": "bttFromUser",
          "type": "uint256"
        }
      ],
      "name": "userSold",
      "type": "event"
    },
    {
      "inputs": [],
      "name": "acceptOwnership",
      "outputs": [],
      "stateMutability": "nonpayable",
      "type": "function"
    },
    {
      "inputs": [
        {
          "internalType": "uint256",
          "name": "amount",
          "type": "uint256"
        }
      ],
      "name": "buy",
      "outputs": [],
      "stateMutability": "nonpayable",
      "type": "function"
    },
    {
      "inputs": [],
      "name": "fee",
      "outputs": [
        {
          "internalType": "uint256",
          "name": "",
          "type": "uint256"
        }
      ],
      "stateMutability": "view",
      "type": "function"
    },
    {
      "inputs": [],
      "name": "marketTokenPer100Btt",
      "outputs": [
        {
          "internalType": "uint256",
          "name": "",
          "type": "uint256"
        }
      ],
      "stateMutability": "view",
      "type": "function"
    },
    {
      "inputs": [],
      "name": "owner",
      "outputs": [
        {
          "internalType": "address",
          "name": "",
          "type": "address"
        }
      ],
      "stateMutability": "view",
      "type": "function"
    },
    {
      "inputs": [],
      "name": "pendingOwner",
      "outputs": [
        {
          "internalType": "address",
          "name": "",
          "type": "address"
        }
      ],
      "stateMutability": "view",
      "type": "function"
    },
    {
      "inputs": [],
      "name": "renounceOwnership",
      "outputs": [],
      "stateMutability": "nonpayable",
      "type": "function"
    },
    {
      "inputs": [
        {
          "internalType": "uint256",
          "name": "amount",
          "type": "uint256"
        }
      ],
      "name": "sell",
      "outputs": [],
      "stateMutability": "nonpayable",
      "type": "function"
    },
    {
      "inputs": [
        {
          "internalType": "uint256",
          "name": "_fee",
          "type": "uint256"
        }
      ],
      "name": "setFee",
      "outputs": [],
      "stateMutability": "nonpayable",
      "type": "function"
    },
    {
      "inputs": [
        {
          "internalType": "uint256",
          "name": "_marketTokenPer100Btt",
          "type": "uint256"
        }
      ],
      "name": "setRate",
      "outputs": [],
      "stateMutability": "nonpayable",
      "type": "function"
    },
    {
      "inputs": [
        {
          "internalType": "address",
          "name": "newOwner",
          "type": "address"
        }
      ],
      "name": "transferOwnership",
      "outputs": [],
      "stateMutability": "nonpayable",
      "type": "function"
    },
    {
      "inputs": [],
      "name": "withdrawAll",
      "outputs": [],
      "stateMutability": "nonpayable",
      "type": "function"
    }
  ],
  "bytecode": "0x60c06040523480156200001157600080fd5b506040516200216238038062002162833981810160405281019062000037919062000452565b33600073ffffffffffffffffffffffffffffffffffffffff168173ffffffffffffffffffffffffffffffffffffffff1603620000ad5760006040517f1e4fbdf7000000000000000000000000000000000000000000000000000000008152600401620000a49190620004d5565b60405180910390fd5b620000be81620002b060201b60201c565b50600073ffffffffffffffffffffffffffffffffffffffff168473ffffffffffffffffffffffffffffffffffffffff160362000131576040517f08c379a0000000000000000000000000000000000000000000000000000000008152600401620001289062000553565b60405180910390fd5b600073ffffffffffffffffffffffffffffffffffffffff168373ffffffffffffffffffffffffffffffffffffffff1603620001a3576040517f08c379a00000000000000000000000000000000000000000000000000000000081526004016200019a90620005eb565b60405180910390fd5b60008211620001e9576040517f08c379a0000000000000000000000000000000000000000000000000000000008152600401620001e0906200065d565b60405180910390fd5b6103e8811062000230576040517f08c379a00000000000000000000000000000000000000000000000000000000081526004016200022790620006cf565b60405180910390fd5b8373ffffffffffffffffffffffffffffffffffffffff1660808173ffffffffffffffffffffffffffffffffffffffff16815250508273ffffffffffffffffffffffffffffffffffffffff1660a08173ffffffffffffffffffffffffffffffffffffffff1681525050816002819055508060038190555050505050620006f1565b600160006101000a81549073ffffffffffffffffffffffffffffffffffffffff0219169055620002e681620002e960201b60201c565b50565b60008060009054906101000a900473ffffffffffffffffffffffffffffffffffffffff169050816000806101000a81548173ffffffffffffffffffffffffffffffffffffffff021916908373ffffffffffffffffffffffffffffffffffffffff1602179055508173ffffffffffffffffffffffffffffffffffffffff168173ffffffffffffffffffffffffffffffffffffffff167f8be0079c531659141344cd1fd0a4f28419497f9722a3daafe3b4186f6b6457e060405160405180910390a35050565b600080fd5b600073ffffffffffffffffffffffffffffffffffffffff82169050919050565b6000620003df82620003b2565b9050919050565b620003f181620003d2565b8114620003fd57600080fd5b50565b6000815190506200041181620003e6565b92915050565b6000819050919050565b6200042c8162000417565b81146200043857600080fd5b50565b6000815190506200044c8162000421565b92915050565b600080600080608085870312156200046f576200046e620003ad565b5b60006200047f8782880162000400565b9450506020620004928782880162000400565b9350506040620004a5878288016200043b565b9250506060620004b8878288016200043b565b91505092959194509250565b620004cf81620003d2565b82525050565b6000602082019050620004ec6000830184620004c4565b92915050565b600082825260208201905092915050565b7f43616e6e6f74207365742042545420746f207a65726f20616464726573730000600082015250565b60006200053b601e83620004f2565b9150620005488262000503565b602082019050919050565b600060208201905081810360008301526200056e816200052c565b9050919050565b7f43616e6e6f7420736574206d61726b657420746f6b656e20746f207a65726f2060008201527f6164647265737300000000000000000000000000000000000000000000000000602082015250565b6000620005d3602783620004f2565b9150620005e08262000575565b604082019050919050565b600060208201905081810360008301526200060681620005c4565b9050919050565b7f52617465206d7573742062652067726561746572207468616e20300000000000600082015250565b600062000645601b83620004f2565b915062000652826200060d565b602082019050919050565b60006020820190508181036000830152620006788162000636565b9050919050565b7f466565206d757374206265206c6573736572207468616e203130303000000000600082015250565b6000620006b7601c83620004f2565b9150620006c4826200067f565b602082019050919050565b60006020820190508181036000830152620006ea81620006a8565b9050919050565b60805160a051611a056200075d600039600081816103d30152818161059b0152818161060e0152818161089b01528181610abb0152610c57015260008181610335015281816104e20152818161074b015281816108e70152818161099a0152610c0b0152611a056000f3fe608060405234801561001057600080fd5b50600436106100b45760003560e01c8063d96a094a11610071578063d96a094a1461012d578063ddca3f4314610149578063e30c397814610167578063e4849b3214610185578063e66fff51146101a1578063f2fde38b146101bf576100b4565b806334fcf437146100b957806369fe0e2d146100d5578063715018a6146100f157806379ba5097146100fb578063853828b6146101055780638da5cb5b1461010f575b600080fd5b6100d360048036038101906100ce9190611299565b6101db565b005b6100ef60048036038101906100ea9190611299565b610230565b005b6100f9610286565b005b61010361029a565b005b61010d610329565b005b6101176105e3565b6040516101249190611307565b60405180910390f35b61014760048036038101906101429190611299565b61060c565b005b610151610968565b60405161015e9190611331565b60405180910390f35b61016f61096e565b60405161017c9190611307565b60405180910390f35b61019f600480360381019061019a9190611299565b610998565b005b6101a9610cd8565b6040516101b69190611331565b60405180910390f35b6101d960048036038101906101d49190611378565b610cde565b005b6101e3610d8b565b60008111610226576040517f08c379a000000000000000000000000000000000000000000000000000000000815260040161021d90611402565b60405180910390fd5b8060028190555050565b610238610d8b565b6103e8811061027c576040517f08c379a00000000000000000000000000000000000000000000000000000000081526004016102739061146e565b60405180910390fd5b8060038190555050565b61028e610d8b565b6102986000610e12565b565b60006102a4610e43565b90508073ffffffffffffffffffffffffffffffffffffffff166102c561096e565b73ffffffffffffffffffffffffffffffffffffffff161461031d57806040517f118cdaa70000000000000000000000000000000000000000000000000000000081526004016103149190611307565b60405180910390fd5b61032681610e12565b50565b610331610d8b565b60007f000000000000000000000000000000000000000000000000000000000000000073ffffffffffffffffffffffffffffffffffffffff166370a08231306040518263ffffffff1660e01b815260040161038c9190611307565b602060405180830381865afa1580156103a9573d6000803e3d6000fd5b505050506040513d601f19601f820116820180604052508101906103cd91906114a3565b905060007f000000000000000000000000000000000000000000000000000000000000000073ffffffffffffffffffffffffffffffffffffffff166370a08231306040518263ffffffff1660e01b815260040161042a9190611307565b602060405180830381865afa158015610447573d6000803e3d6000fd5b505050506040513d601f19601f8201168201806040525081019061046b91906114a3565b90506105263073ffffffffffffffffffffffffffffffffffffffff16638da5cb5b6040518163ffffffff1660e01b8152600401602060405180830381865afa1580156104bb573d6000803e3d6000fd5b505050506040513d601f19601f820116820180604052508101906104df91906114e5565b837f000000000000000000000000000000000000000000000000000000000000000073ffffffffffffffffffffffffffffffffffffffff16610e4b9092919063ffffffff16565b6105df3073ffffffffffffffffffffffffffffffffffffffff16638da5cb5b6040518163ffffffff1660e01b8152600401602060405180830381865afa158015610574573d6000803e3d6000fd5b505050506040513d601f19601f8201168201806040525081019061059891906114e5565b827f000000000000000000000000000000000000000000000000000000000000000073ffffffffffffffffffffffffffffffffffffffff16610e4b9092919063ffffffff16565b5050565b60008060009054906101000a900473ffffffffffffffffffffffffffffffffffffffff16905090565b7f000000000000000000000000000000000000000000000000000000000000000073ffffffffffffffffffffffffffffffffffffffff166370a08231336040518263ffffffff1660e01b81526004016106659190611307565b602060405180830381865afa158015610682573d6000803e3d6000fd5b505050506040513d601f19601f820116820180604052508101906106a691906114a3565b8111156106e8576040517f08c379a00000000000000000000000000000000000000000000000000000000081526004016106df9061155e565b60405180910390fd5b60006002546064836106fa91906115ad565b610704919061161e565b905060008111610749576040517f08c379a00000000000000000000000000000000000000000000000000000000081526004016107409061169b565b60405180910390fd5b7f000000000000000000000000000000000000000000000000000000000000000073ffffffffffffffffffffffffffffffffffffffff166370a08231306040518263ffffffff1660e01b81526004016107a29190611307565b602060405180830381865afa1580156107bf573d6000803e3d6000fd5b505050506040513d601f19601f820116820180604052508101906107e391906114a3565b811115610825576040517f08c379a000000000000000000000000000000000000000000000000000000000815260040161081c90611707565b60405180910390fd5b6108e0333073ffffffffffffffffffffffffffffffffffffffff16638da5cb5b6040518163ffffffff1660e01b8152600401602060405180830381865afa158015610874573d6000803e3d6000fd5b505050506040513d601f19601f8201168201806040525081019061089891906114e5565b847f000000000000000000000000000000000000000000000000000000000000000073ffffffffffffffffffffffffffffffffffffffff16610eca909392919063ffffffff16565b61092b33827f000000000000000000000000000000000000000000000000000000000000000073ffffffffffffffffffffffffffffffffffffffff16610e4b9092919063ffffffff16565b7f72aa7dfca3242308f301d575b1ed6240218f1a0d4408043bdccfa7f550ca7940828260405161095c929190611727565b60405180910390a15050565b60035481565b6000600160009054906101000a900473ffffffffffffffffffffffffffffffffffffffff16905090565b7f000000000000000000000000000000000000000000000000000000000000000073ffffffffffffffffffffffffffffffffffffffff166370a08231336040518263ffffffff1660e01b81526004016109f19190611307565b602060405180830381865afa158015610a0e573d6000803e3d6000fd5b505050506040513d601f19601f82011682018060405250810190610a3291906114a3565b811115610a74576040517f08c379a0000000000000000000000000000000000000000000000000000000008152600401610a6b9061179c565b60405180910390fd5b60006103e86003546103e8610a8991906117bc565b606460025485610a9991906115ad565b610aa3919061161e565b610aad91906115ad565b610ab7919061161e565b90507f000000000000000000000000000000000000000000000000000000000000000073ffffffffffffffffffffffffffffffffffffffff166370a08231306040518263ffffffff1660e01b8152600401610b129190611307565b602060405180830381865afa158015610b2f573d6000803e3d6000fd5b505050506040513d601f19601f82011682018060405250810190610b5391906114a3565b811115610b95576040517f08c379a0000000000000000000000000000000000000000000000000000000008152600401610b8c90611862565b60405180910390fd5b610c50333073ffffffffffffffffffffffffffffffffffffffff16638da5cb5b6040518163ffffffff1660e01b8152600401602060405180830381865afa158015610be4573d6000803e3d6000fd5b505050506040513d601f19601f82011682018060405250810190610c0891906114e5565b847f000000000000000000000000000000000000000000000000000000000000000073ffffffffffffffffffffffffffffffffffffffff16610eca909392919063ffffffff16565b610c9b33827f000000000000000000000000000000000000000000000000000000000000000073ffffffffffffffffffffffffffffffffffffffff16610e4b9092919063ffffffff16565b7f0c2b4923053d09bd7476a79b7a046176d2e234668907ab0e1f77b3fa163e3de78183604051610ccc929190611727565b60405180910390a15050565b60025481565b610ce6610d8b565b80600160006101000a81548173ffffffffffffffffffffffffffffffffffffffff021916908373ffffffffffffffffffffffffffffffffffffffff1602179055508073ffffffffffffffffffffffffffffffffffffffff16610d466105e3565b73ffffffffffffffffffffffffffffffffffffffff167f38d16b8cac22d99fc7c124b9cd0de2d3fa1faef420bfe791d8c362d765e2270060405160405180910390a350565b610d93610e43565b73ffffffffffffffffffffffffffffffffffffffff16610db16105e3565b73ffffffffffffffffffffffffffffffffffffffff1614610e1057610dd4610e43565b6040517f118cdaa7000000000000000000000000000000000000000000000000000000008152600401610e079190611307565b60405180910390fd5b565b600160006101000a81549073ffffffffffffffffffffffffffffffffffffffff0219169055610e4081610f4c565b50565b600033905090565b610ec5838473ffffffffffffffffffffffffffffffffffffffff1663a9059cbb8585604051602401610e7e929190611882565b604051602081830303815290604052915060e01b6020820180517bffffffffffffffffffffffffffffffffffffffffffffffffffffffff8381831617835250505050611010565b505050565b610f46848573ffffffffffffffffffffffffffffffffffffffff166323b872dd868686604051602401610eff939291906118ab565b604051602081830303815290604052915060e01b6020820180517bffffffffffffffffffffffffffffffffffffffffffffffffffffffff8381831617835250505050611010565b50505050565b60008060009054906101000a900473ffffffffffffffffffffffffffffffffffffffff169050816000806101000a81548173ffffffffffffffffffffffffffffffffffffffff021916908373ffffffffffffffffffffffffffffffffffffffff1602179055508173ffffffffffffffffffffffffffffffffffffffff168173ffffffffffffffffffffffffffffffffffffffff167f8be0079c531659141344cd1fd0a4f28419497f9722a3daafe3b4186f6b6457e060405160405180910390a35050565b600061103b828473ffffffffffffffffffffffffffffffffffffffff166110a790919063ffffffff16565b9050600081511415801561106057508080602001905181019061105e919061191a565b155b156110a257826040517f5274afe70000000000000000000000000000000000000000000000000000000081526004016110999190611307565b60405180910390fd5b505050565b60606110b5838360006110bd565b905092915050565b60608147101561110457306040517fcd7860590000000000000000000000000000000000000000000000000000000081526004016110fb9190611307565b60405180910390fd5b6000808573ffffffffffffffffffffffffffffffffffffffff16848660405161112d91906119b8565b60006040518083038185875af1925050503d806000811461116a576040519150601f19603f3d011682016040523d82523d6000602084013e61116f565b606091505b509150915061117f86838361118a565b925050509392505050565b60608261119f5761119a82611219565b611211565b600082511480156111c7575060008473ffffffffffffffffffffffffffffffffffffffff163b145b1561120957836040517f9996b3150000000000000000000000000000000000000000000000000000000081526004016112009190611307565b60405180910390fd5b819050611212565b5b9392505050565b60008151111561122c5780518082602001fd5b6040517f1425ea4200000000000000000000000000000000000000000000000000000000815260040160405180910390fd5b600080fd5b6000819050919050565b61127681611263565b811461128157600080fd5b50565b6000813590506112938161126d565b92915050565b6000602082840312156112af576112ae61125e565b5b60006112bd84828501611284565b91505092915050565b600073ffffffffffffffffffffffffffffffffffffffff82169050919050565b60006112f1826112c6565b9050919050565b611301816112e6565b82525050565b600060208201905061131c60008301846112f8565b92915050565b61132b81611263565b82525050565b60006020820190506113466000830184611322565b92915050565b611355816112e6565b811461136057600080fd5b50565b6000813590506113728161134c565b92915050565b60006020828403121561138e5761138d61125e565b5b600061139c84828501611363565b91505092915050565b600082825260208201905092915050565b7f52617465206d7573742062652067726561746572207468616e20300000000000600082015250565b60006113ec601b836113a5565b91506113f7826113b6565b602082019050919050565b6000602082019050818103600083015261141b816113df565b9050919050565b7f466565206d757374206265206c6573736572207468616e203130303000000000600082015250565b6000611458601c836113a5565b915061146382611422565b602082019050919050565b600060208201905081810360008301526114878161144b565b9050919050565b60008151905061149d8161126d565b92915050565b6000602082840312156114b9576114b861125e565b5b60006114c78482850161148e565b91505092915050565b6000815190506114df8161134c565b92915050565b6000602082840312156114fb576114fa61125e565b5b6000611509848285016114d0565b91505092915050565b7f5573657220646f65736e2774206861766520656e6f7567682062616c616e6365600082015250565b60006115486020836113a5565b915061155382611512565b602082019050919050565b600060208201905081810360008301526115778161153b565b9050919050565b7f4e487b7100000000000000000000000000000000000000000000000000000000600052601160045260246000fd5b60006115b882611263565b91506115c383611263565b92508282026115d181611263565b915082820484148315176115e8576115e761157e565b5b5092915050565b7f4e487b7100000000000000000000000000000000000000000000000000000000600052601260045260246000fd5b600061162982611263565b915061163483611263565b925082611644576116436115ef565b5b828204905092915050565b7f416d6f756e7420746f6f20736d616c6c00000000000000000000000000000000600082015250565b60006116856010836113a5565b91506116908261164f565b602082019050919050565b600060208201905081810360008301526116b481611678565b9050919050565b7f4d61726b657420646f65736e2774206861766520656e6f756768204254540000600082015250565b60006116f1601e836113a5565b91506116fc826116bb565b602082019050919050565b60006020820190508181036000830152611720816116e4565b9050919050565b600060408201905061173c6000830185611322565b6117496020830184611322565b9392505050565b7f5573657220646f65736e2774206861766520656e6f7567682042545400000000600082015250565b6000611786601c836113a5565b915061179182611750565b602082019050919050565b600060208201905081810360008301526117b581611779565b9050919050565b60006117c782611263565b91506117d283611263565b92508282039050818111156117ea576117e961157e565b5b92915050565b7f4d61726b657420646f65736e2774206861766520656e6f7567682062616c616e60008201527f6365000000000000000000000000000000000000000000000000000000000000602082015250565b600061184c6022836113a5565b9150611857826117f0565b604082019050919050565b6000602082019050818103600083015261187b8161183f565b9050919050565b600060408201905061189760008301856112f8565b6118a46020830184611322565b9392505050565b60006060820190506118c060008301866112f8565b6118cd60208301856112f8565b6118da6040830184611322565b949350505050565b60008115159050919050565b6118f7816118e2565b811461190257600080fd5b50565b600081519050611914816118ee565b92915050565b6000602082840312156119305761192f61125e565b5b600061193e84828501611905565b91505092915050565b600081519050919050565b600081905092915050565b60005b8381101561197b578082015181840152602081019050611960565b60008484015250505050565b600061199282611947565b61199c8185611952565b93506119ac81856020860161195d565b80840191505092915050565b60006119c48284611987565b91508190509291505056fea26469706673582212202cad749779895e6d9c8f29f8ee34fe21c38abe2cdc45f7d296c09d95ccbfc8f464736f6c63430008140033",
  "linkReferences": {},
  "deployedLinkReferences": {}
}