{
  "_format": "hh-sol-artifact-1",
  "contractName": "EVAMarket",
  "sourceName": "contracts/EVAMarket.sol",
  "abi": [
    {
      "inputs": [
        {
          "internalType": "address",
          "name": "_addrEva",
          "type": "address"
        },
        {
          "internalType": "address",
          "name": "_addrMarketToken",
          "type": "address"
        },
        {
          "internalType": "uint256",
          "name": "_marketTokenPer100Eva",
          "type": "uint256"
        },
        {
          "internalType": "uint256",
          "name": "_fee",
          "type": "uint256"
        },
        {
          "internalType": "uint256",
          "name": "_marketTokenDecimals",
          "type": "uint256"
        }
      ],
      "stateMutability": "nonpayable",
      "type": "constructor"
    },
    {
      "inputs": [
        {
          "internalType": "address",
          "name": "target",
          "type": "address"
        }
      ],
      "name": "AddressEmptyCode",
      "type": "error"
    },
    {
      "inputs": [
        {
          "internalType": "address",
          "name": "account",
          "type": "address"
        }
      ],
      "name": "AddressInsufficientBalance",
      "type": "error"
    },
    {
      "inputs": [],
      "name": "FailedInnerCall",
      "type": "error"
    },
    {
      "inputs": [
        {
          "internalType": "address",
          "name": "owner",
          "type": "address"
        }
      ],
      "name": "OwnableInvalidOwner",
      "type": "error"
    },
    {
      "inputs": [
        {
          "internalType": "address",
          "name": "account",
          "type": "address"
        }
      ],
      "name": "OwnableUnauthorizedAccount",
      "type": "error"
    },
    {
      "inputs": [
        {
          "internalType": "address",
          "name": "token",
          "type": "address"
        }
      ],
      "name": "SafeERC20FailedOperation",
      "type": "error"
    },
    {
      "anonymous": false,
      "inputs": [
        {
          "indexed": true,
          "internalType": "address",
          "name": "previousOwner",
          "type": "address"
        },
        {
          "indexed": true,
          "internalType": "address",
          "name": "newOwner",
          "type": "address"
        }
      ],
      "name": "OwnershipTransferStarted",
      "type": "event"
    },
    {
      "anonymous": false,
      "inputs": [
        {
          "indexed": true,
          "internalType": "address",
          "name": "previousOwner",
          "type": "address"
        },
        {
          "indexed": true,
          "internalType": "address",
          "name": "newOwner",
          "type": "address"
        }
      ],
      "name": "OwnershipTransferred",
      "type": "event"
    },
    {
      "anonymous": false,
      "inputs": [
        {
          "indexed": false,
          "internalType": "uint256",
          "name": "marketTokenFromUser",
          "type": "uint256"
        },
        {
          "indexed": false,
          "internalType": "uint256",
          "name": "evaToUser",
          "type": "uint256"
        }
      ],
      "name": "userBought",
      "type": "event"
    },
    {
      "anonymous": false,
      "inputs": [
        {
          "indexed": false,
          "internalType": "uint256",
          "name": "marketTokenToUser",
          "type": "uint256"
        },
        {
          "indexed": false,
          "internalType": "uint256",
          "name": "evaFromUser",
          "type": "uint256"
        }
      ],
      "name": "userSold",
      "type": "event"
    },
    {
      "inputs": [],
      "name": "acceptOwnership",
      "outputs": [],
      "stateMutability": "nonpayable",
      "type": "function"
    },
    {
      "inputs": [
        {
          "internalType": "uint256",
          "name": "amount",
          "type": "uint256"
        }
      ],
      "name": "buy",
      "outputs": [],
      "stateMutability": "nonpayable",
      "type": "function"
    },
    {
      "inputs": [],
      "name": "fee",
      "outputs": [
        {
          "internalType": "uint256",
          "name": "",
          "type": "uint256"
        }
      ],
      "stateMutability": "view",
      "type": "function"
    },
    {
      "inputs": [],
      "name": "marketTokenDecimals",
      "outputs": [
        {
          "internalType": "uint256",
          "name": "",
          "type": "uint256"
        }
      ],
      "stateMutability": "view",
      "type": "function"
    },
    {
      "inputs": [],
      "name": "marketTokenPer100Eva",
      "outputs": [
        {
          "internalType": "uint256",
          "name": "",
          "type": "uint256"
        }
      ],
      "stateMutability": "view",
      "type": "function"
    },
    {
      "inputs": [],
      "name": "owner",
      "outputs": [
        {
          "internalType": "address",
          "name": "",
          "type": "address"
        }
      ],
      "stateMutability": "view",
      "type": "function"
    },
    {
      "inputs": [],
      "name": "pendingOwner",
      "outputs": [
        {
          "internalType": "address",
          "name": "",
          "type": "address"
        }
      ],
      "stateMutability": "view",
      "type": "function"
    },
    {
      "inputs": [],
      "name": "renounceOwnership",
      "outputs": [],
      "stateMutability": "nonpayable",
      "type": "function"
    },
    {
      "inputs": [
        {
          "internalType": "uint256",
          "name": "amount",
          "type": "uint256"
        }
      ],
      "name": "sell",
      "outputs": [],
      "stateMutability": "nonpayable",
      "type": "function"
    },
    {
      "inputs": [
        {
          "internalType": "uint256",
          "name": "_fee",
          "type": "uint256"
        }
      ],
      "name": "setFee",
      "outputs": [],
      "stateMutability": "nonpayable",
      "type": "function"
    },
    {
      "inputs": [
        {
          "internalType": "uint256",
          "name": "_marketTokenPer100Eva",
          "type": "uint256"
        }
      ],
      "name": "setRate",
      "outputs": [],
      "stateMutability": "nonpayable",
      "type": "function"
    },
    {
      "inputs": [
        {
          "internalType": "address",
          "name": "newOwner",
          "type": "address"
        }
      ],
      "name": "transferOwnership",
      "outputs": [],
      "stateMutability": "nonpayable",
      "type": "function"
    },
    {
      "inputs": [],
      "name": "withdrawAll",
      "outputs": [],
      "stateMutability": "nonpayable",
      "type": "function"
    }
  ],
  "bytecode": "0x60e06040523480156200001157600080fd5b50604051620025e6380380620025e683398181016040528101906200003791906200045b565b33600073ffffffffffffffffffffffffffffffffffffffff168173ffffffffffffffffffffffffffffffffffffffff1603620000ad5760006040517f1e4fbdf7000000000000000000000000000000000000000000000000000000008152600401620000a49190620004f4565b60405180910390fd5b620000be81620002b960201b60201c565b50600073ffffffffffffffffffffffffffffffffffffffff168573ffffffffffffffffffffffffffffffffffffffff160362000131576040517f08c379a0000000000000000000000000000000000000000000000000000000008152600401620001289062000572565b60405180910390fd5b600073ffffffffffffffffffffffffffffffffffffffff168473ffffffffffffffffffffffffffffffffffffffff1603620001a3576040517f08c379a00000000000000000000000000000000000000000000000000000000081526004016200019a906200060a565b60405180910390fd5b60008311620001e9576040517f08c379a0000000000000000000000000000000000000000000000000000000008152600401620001e0906200067c565b60405180910390fd5b6103e8821062000230576040517f08c379a00000000000000000000000000000000000000000000000000000000081526004016200022790620006ee565b60405180910390fd5b8473ffffffffffffffffffffffffffffffffffffffff1660808173ffffffffffffffffffffffffffffffffffffffff16815250508373ffffffffffffffffffffffffffffffffffffffff1660a08173ffffffffffffffffffffffffffffffffffffffff168152505082600281905550816003819055508060c08181525050505050505062000710565b600160006101000a81549073ffffffffffffffffffffffffffffffffffffffff0219169055620002ef81620002f260201b60201c565b50565b60008060009054906101000a900473ffffffffffffffffffffffffffffffffffffffff169050816000806101000a81548173ffffffffffffffffffffffffffffffffffffffff021916908373ffffffffffffffffffffffffffffffffffffffff1602179055508173ffffffffffffffffffffffffffffffffffffffff168173ffffffffffffffffffffffffffffffffffffffff167f8be0079c531659141344cd1fd0a4f28419497f9722a3daafe3b4186f6b6457e060405160405180910390a35050565b600080fd5b600073ffffffffffffffffffffffffffffffffffffffff82169050919050565b6000620003e882620003bb565b9050919050565b620003fa81620003db565b81146200040657600080fd5b50565b6000815190506200041a81620003ef565b92915050565b6000819050919050565b620004358162000420565b81146200044157600080fd5b50565b60008151905062000455816200042a565b92915050565b600080600080600060a086880312156200047a5762000479620003b6565b5b60006200048a8882890162000409565b95505060206200049d8882890162000409565b9450506040620004b08882890162000444565b9350506060620004c38882890162000444565b9250506080620004d68882890162000444565b9150509295509295909350565b620004ee81620003db565b82525050565b60006020820190506200050b6000830184620004e3565b92915050565b600082825260208201905092915050565b7f43616e6e6f74207365742045564120746f207a65726f20616464726573730000600082015250565b60006200055a601e8362000511565b9150620005678262000522565b602082019050919050565b600060208201905081810360008301526200058d816200054b565b9050919050565b7f43616e6e6f7420736574206d61726b657420746f6b656e20746f207a65726f2060008201527f6164647265737300000000000000000000000000000000000000000000000000602082015250565b6000620005f260278362000511565b9150620005ff8262000594565b604082019050919050565b600060208201905081810360008301526200062581620005e3565b9050919050565b7f52617465206d7573742062652067726561746572207468616e20300000000000600082015250565b600062000664601b8362000511565b915062000671826200062c565b602082019050919050565b60006020820190508181036000830152620006978162000655565b9050919050565b7f466565206d757374206265206c6573736572207468616e203130303000000000600082015250565b6000620006d6601c8362000511565b9150620006e3826200069e565b602082019050919050565b600060208201905081810360008301526200070981620006c7565b9050919050565b60805160a05160c051611e44620007a26000396000818161064d015281816107e90152610c3d01526000818161040c015281816105d401528181610671015281816109c301528181610caa0152610e4601526000818161036e0152818161051b0152818161074f0152818161087301528181610a0f01528181610ac401528181610ba20152610dfa0152611e446000f3fe608060405234801561001057600080fd5b50600436106100cf5760003560e01c80638da5cb5b1161008c578063ddca3f4311610066578063ddca3f43146101a0578063e30c3978146101be578063e4849b32146101dc578063f2fde38b146101f8576100cf565b80638da5cb5b14610148578063a5ad40b614610166578063d96a094a14610184576100cf565b806334fcf437146100d457806369fe0e2d146100f0578063715018a61461010c57806379ba509714610116578063853828b6146101205780638667764a1461012a575b600080fd5b6100ee60048036038101906100e991906114f4565b610214565b005b61010a600480360381019061010591906114f4565b610269565b005b6101146102bf565b005b61011e6102d3565b005b610128610362565b005b61013261061c565b60405161013f9190611530565b60405180910390f35b610150610622565b60405161015d919061158c565b60405180910390f35b61016e61064b565b60405161017b9190611530565b60405180910390f35b61019e600480360381019061019991906114f4565b61066f565b005b6101a8610a92565b6040516101b59190611530565b60405180910390f35b6101c6610a98565b6040516101d3919061158c565b60405180910390f35b6101f660048036038101906101f191906114f4565b610ac2565b005b610212600480360381019061020d91906115d3565b610ec9565b005b61021c610f76565b6000811161025f576040517f08c379a00000000000000000000000000000000000000000000000000000000081526004016102569061165d565b60405180910390fd5b8060028190555050565b610271610f76565b6103e881106102b5576040517f08c379a00000000000000000000000000000000000000000000000000000000081526004016102ac906116c9565b60405180910390fd5b8060038190555050565b6102c7610f76565b6102d16000610ffd565b565b60006102dd61102e565b90508073ffffffffffffffffffffffffffffffffffffffff166102fe610a98565b73ffffffffffffffffffffffffffffffffffffffff161461035657806040517f118cdaa700000000000000000000000000000000000000000000000000000000815260040161034d919061158c565b60405180910390fd5b61035f81610ffd565b50565b61036a610f76565b60007f000000000000000000000000000000000000000000000000000000000000000073ffffffffffffffffffffffffffffffffffffffff166370a08231306040518263ffffffff1660e01b81526004016103c5919061158c565b602060405180830381865afa1580156103e2573d6000803e3d6000fd5b505050506040513d601f19601f8201168201806040525081019061040691906116fe565b905060007f000000000000000000000000000000000000000000000000000000000000000073ffffffffffffffffffffffffffffffffffffffff166370a08231306040518263ffffffff1660e01b8152600401610463919061158c565b602060405180830381865afa158015610480573d6000803e3d6000fd5b505050506040513d601f19601f820116820180604052508101906104a491906116fe565b905061055f3073ffffffffffffffffffffffffffffffffffffffff16638da5cb5b6040518163ffffffff1660e01b8152600401602060405180830381865afa1580156104f4573d6000803e3d6000fd5b505050506040513d601f19601f820116820180604052508101906105189190611740565b837f000000000000000000000000000000000000000000000000000000000000000073ffffffffffffffffffffffffffffffffffffffff166110369092919063ffffffff16565b6106183073ffffffffffffffffffffffffffffffffffffffff16638da5cb5b6040518163ffffffff1660e01b8152600401602060405180830381865afa1580156105ad573d6000803e3d6000fd5b505050506040513d601f19601f820116820180604052508101906105d19190611740565b827f000000000000000000000000000000000000000000000000000000000000000073ffffffffffffffffffffffffffffffffffffffff166110369092919063ffffffff16565b5050565b60025481565b60008060009054906101000a900473ffffffffffffffffffffffffffffffffffffffff16905090565b7f000000000000000000000000000000000000000000000000000000000000000081565b7f000000000000000000000000000000000000000000000000000000000000000073ffffffffffffffffffffffffffffffffffffffff166370a08231336040518263ffffffff1660e01b81526004016106c8919061158c565b602060405180830381865afa1580156106e5573d6000803e3d6000fd5b505050506040513d601f19601f8201168201806040525081019061070991906116fe565b81111561074b576040517f08c379a0000000000000000000000000000000000000000000000000000000008152600401610742906117b9565b60405180910390fd5b60007f000000000000000000000000000000000000000000000000000000000000000073ffffffffffffffffffffffffffffffffffffffff1663313ce5676040518163ffffffff1660e01b8152600401602060405180830381865afa1580156107b8573d6000803e3d6000fd5b505050506040513d601f19601f820116820180604052508101906107dc9190611812565b60ff169050600061080e837f0000000000000000000000000000000000000000000000000000000000000000846110b5565b90506000600254606483610822919061186e565b61082c91906118df565b905060008111610871576040517f08c379a00000000000000000000000000000000000000000000000000000000081526004016108689061195c565b60405180910390fd5b7f000000000000000000000000000000000000000000000000000000000000000073ffffffffffffffffffffffffffffffffffffffff166370a08231306040518263ffffffff1660e01b81526004016108ca919061158c565b602060405180830381865afa1580156108e7573d6000803e3d6000fd5b505050506040513d601f19601f8201168201806040525081019061090b91906116fe565b81111561094d576040517f08c379a0000000000000000000000000000000000000000000000000000000008152600401610944906119c8565b60405180910390fd5b610a08333073ffffffffffffffffffffffffffffffffffffffff16638da5cb5b6040518163ffffffff1660e01b8152600401602060405180830381865afa15801561099c573d6000803e3d6000fd5b505050506040513d601f19601f820116820180604052508101906109c09190611740565b867f000000000000000000000000000000000000000000000000000000000000000073ffffffffffffffffffffffffffffffffffffffff16611125909392919063ffffffff16565b610a5333827f000000000000000000000000000000000000000000000000000000000000000073ffffffffffffffffffffffffffffffffffffffff166110369092919063ffffffff16565b7f72aa7dfca3242308f301d575b1ed6240218f1a0d4408043bdccfa7f550ca79408482604051610a849291906119e8565b60405180910390a150505050565b60035481565b6000600160009054906101000a900473ffffffffffffffffffffffffffffffffffffffff16905090565b7f000000000000000000000000000000000000000000000000000000000000000073ffffffffffffffffffffffffffffffffffffffff166370a08231336040518263ffffffff1660e01b8152600401610b1b919061158c565b602060405180830381865afa158015610b38573d6000803e3d6000fd5b505050506040513d601f19601f82011682018060405250810190610b5c91906116fe565b811115610b9e576040517f08c379a0000000000000000000000000000000000000000000000000000000008152600401610b9590611a5d565b60405180910390fd5b60007f000000000000000000000000000000000000000000000000000000000000000073ffffffffffffffffffffffffffffffffffffffff1663313ce5676040518163ffffffff1660e01b8152600401602060405180830381865afa158015610c0b573d6000803e3d6000fd5b505050506040513d601f19601f82011682018060405250810190610c2f9190611812565b60ff1690506000610c6183837f00000000000000000000000000000000000000000000000000000000000000006110b5565b905060006103e86003546103e8610c789190611a7d565b606460025485610c88919061186e565b610c9291906118df565b610c9c919061186e565b610ca691906118df565b90507f000000000000000000000000000000000000000000000000000000000000000073ffffffffffffffffffffffffffffffffffffffff166370a08231306040518263ffffffff1660e01b8152600401610d01919061158c565b602060405180830381865afa158015610d1e573d6000803e3d6000fd5b505050506040513d601f19601f82011682018060405250810190610d4291906116fe565b811115610d84576040517f08c379a0000000000000000000000000000000000000000000000000000000008152600401610d7b90611b23565b60405180910390fd5b610e3f333073ffffffffffffffffffffffffffffffffffffffff16638da5cb5b6040518163ffffffff1660e01b8152600401602060405180830381865afa158015610dd3573d6000803e3d6000fd5b505050506040513d601f19601f82011682018060405250810190610df79190611740565b867f000000000000000000000000000000000000000000000000000000000000000073ffffffffffffffffffffffffffffffffffffffff16611125909392919063ffffffff16565b610e8a33827f000000000000000000000000000000000000000000000000000000000000000073ffffffffffffffffffffffffffffffffffffffff166110369092919063ffffffff16565b7f0c2b4923053d09bd7476a79b7a046176d2e234668907ab0e1f77b3fa163e3de78185604051610ebb9291906119e8565b60405180910390a150505050565b610ed1610f76565b80600160006101000a81548173ffffffffffffffffffffffffffffffffffffffff021916908373ffffffffffffffffffffffffffffffffffffffff1602179055508073ffffffffffffffffffffffffffffffffffffffff16610f31610622565b73ffffffffffffffffffffffffffffffffffffffff167f38d16b8cac22d99fc7c124b9cd0de2d3fa1faef420bfe791d8c362d765e2270060405160405180910390a350565b610f7e61102e565b73ffffffffffffffffffffffffffffffffffffffff16610f9c610622565b73ffffffffffffffffffffffffffffffffffffffff1614610ffb57610fbf61102e565b6040517f118cdaa7000000000000000000000000000000000000000000000000000000008152600401610ff2919061158c565b60405180910390fd5b565b600160006101000a81549073ffffffffffffffffffffffffffffffffffffffff021916905561102b816111a7565b50565b600033905090565b6110b0838473ffffffffffffffffffffffffffffffffffffffff1663a9059cbb8585604051602401611069929190611b43565b604051602081830303815290604052915060e01b6020820180517bffffffffffffffffffffffffffffffffffffffffffffffffffffffff838183161783525050505061126b565b505050565b60008183036110c65783905061111e565b818311156110f85781836110da9190611a7d565b600a6110e69190611c9f565b846110f191906118df565b905061111e565b82826111049190611a7d565b600a6111109190611c9f565b8461111b919061186e565b90505b9392505050565b6111a1848573ffffffffffffffffffffffffffffffffffffffff166323b872dd86868660405160240161115a93929190611cea565b604051602081830303815290604052915060e01b6020820180517bffffffffffffffffffffffffffffffffffffffffffffffffffffffff838183161783525050505061126b565b50505050565b60008060009054906101000a900473ffffffffffffffffffffffffffffffffffffffff169050816000806101000a81548173ffffffffffffffffffffffffffffffffffffffff021916908373ffffffffffffffffffffffffffffffffffffffff1602179055508173ffffffffffffffffffffffffffffffffffffffff168173ffffffffffffffffffffffffffffffffffffffff167f8be0079c531659141344cd1fd0a4f28419497f9722a3daafe3b4186f6b6457e060405160405180910390a35050565b6000611296828473ffffffffffffffffffffffffffffffffffffffff1661130290919063ffffffff16565b905060008151141580156112bb5750808060200190518101906112b99190611d59565b155b156112fd57826040517f5274afe70000000000000000000000000000000000000000000000000000000081526004016112f4919061158c565b60405180910390fd5b505050565b606061131083836000611318565b905092915050565b60608147101561135f57306040517fcd786059000000000000000000000000000000000000000000000000000000008152600401611356919061158c565b60405180910390fd5b6000808573ffffffffffffffffffffffffffffffffffffffff1684866040516113889190611df7565b60006040518083038185875af1925050503d80600081146113c5576040519150601f19603f3d011682016040523d82523d6000602084013e6113ca565b606091505b50915091506113da8683836113e5565b925050509392505050565b6060826113fa576113f582611474565b61146c565b60008251148015611422575060008473ffffffffffffffffffffffffffffffffffffffff163b145b1561146457836040517f9996b31500000000000000000000000000000000000000000000000000000000815260040161145b919061158c565b60405180910390fd5b81905061146d565b5b9392505050565b6000815111156114875780518082602001fd5b6040517f1425ea4200000000000000000000000000000000000000000000000000000000815260040160405180910390fd5b600080fd5b6000819050919050565b6114d1816114be565b81146114dc57600080fd5b50565b6000813590506114ee816114c8565b92915050565b60006020828403121561150a576115096114b9565b5b6000611518848285016114df565b91505092915050565b61152a816114be565b82525050565b60006020820190506115456000830184611521565b92915050565b600073ffffffffffffffffffffffffffffffffffffffff82169050919050565b60006115768261154b565b9050919050565b6115868161156b565b82525050565b60006020820190506115a1600083018461157d565b92915050565b6115b08161156b565b81146115bb57600080fd5b50565b6000813590506115cd816115a7565b92915050565b6000602082840312156115e9576115e86114b9565b5b60006115f7848285016115be565b91505092915050565b600082825260208201905092915050565b7f52617465206d7573742062652067726561746572207468616e20300000000000600082015250565b6000611647601b83611600565b915061165282611611565b602082019050919050565b600060208201905081810360008301526116768161163a565b9050919050565b7f466565206d757374206265206c6573736572207468616e203130303000000000600082015250565b60006116b3601c83611600565b91506116be8261167d565b602082019050919050565b600060208201905081810360008301526116e2816116a6565b9050919050565b6000815190506116f8816114c8565b92915050565b600060208284031215611714576117136114b9565b5b6000611722848285016116e9565b91505092915050565b60008151905061173a816115a7565b92915050565b600060208284031215611756576117556114b9565b5b60006117648482850161172b565b91505092915050565b7f5573657220646f65736e2774206861766520656e6f7567682062616c616e6365600082015250565b60006117a3602083611600565b91506117ae8261176d565b602082019050919050565b600060208201905081810360008301526117d281611796565b9050919050565b600060ff82169050919050565b6117ef816117d9565b81146117fa57600080fd5b50565b60008151905061180c816117e6565b92915050565b600060208284031215611828576118276114b9565b5b6000611836848285016117fd565b91505092915050565b7f4e487b7100000000000000000000000000000000000000000000000000000000600052601160045260246000fd5b6000611879826114be565b9150611884836114be565b9250828202611892816114be565b915082820484148315176118a9576118a861183f565b5b5092915050565b7f4e487b7100000000000000000000000000000000000000000000000000000000600052601260045260246000fd5b60006118ea826114be565b91506118f5836114be565b925082611905576119046118b0565b5b828204905092915050565b7f416d6f756e7420746f6f20736d616c6c00000000000000000000000000000000600082015250565b6000611946601083611600565b915061195182611910565b602082019050919050565b6000602082019050818103600083015261197581611939565b9050919050565b7f4d61726b657420646f65736e2774206861766520656e6f756768204556410000600082015250565b60006119b2601e83611600565b91506119bd8261197c565b602082019050919050565b600060208201905081810360008301526119e1816119a5565b9050919050565b60006040820190506119fd6000830185611521565b611a0a6020830184611521565b9392505050565b7f5573657220646f65736e2774206861766520656e6f7567682045564100000000600082015250565b6000611a47601c83611600565b9150611a5282611a11565b602082019050919050565b60006020820190508181036000830152611a7681611a3a565b9050919050565b6000611a88826114be565b9150611a93836114be565b9250828203905081811115611aab57611aaa61183f565b5b92915050565b7f4d61726b657420646f65736e2774206861766520656e6f7567682062616c616e60008201527f6365000000000000000000000000000000000000000000000000000000000000602082015250565b6000611b0d602283611600565b9150611b1882611ab1565b604082019050919050565b60006020820190508181036000830152611b3c81611b00565b9050919050565b6000604082019050611b58600083018561157d565b611b656020830184611521565b9392505050565b60008160011c9050919050565b6000808291508390505b6001851115611bc357808604811115611b9f57611b9e61183f565b5b6001851615611bae5780820291505b8081029050611bbc85611b6c565b9450611b83565b94509492505050565b600082611bdc5760019050611c98565b81611bea5760009050611c98565b8160018114611c005760028114611c0a57611c39565b6001915050611c98565b60ff841115611c1c57611c1b61183f565b5b8360020a915084821115611c3357611c3261183f565b5b50611c98565b5060208310610133831016604e8410600b8410161715611c6e5782820a905083811115611c6957611c6861183f565b5b611c98565b611c7b8484846001611b79565b92509050818404811115611c9257611c9161183f565b5b81810290505b9392505050565b6000611caa826114be565b9150611cb5836114be565b9250611ce27fffffffffffffffffffffffffffffffffffffffffffffffffffffffffffffffff8484611bcc565b905092915050565b6000606082019050611cff600083018661157d565b611d0c602083018561157d565b611d196040830184611521565b949350505050565b60008115159050919050565b611d3681611d21565b8114611d4157600080fd5b50565b600081519050611d5381611d2d565b92915050565b600060208284031215611d6f57611d6e6114b9565b5b6000611d7d84828501611d44565b91505092915050565b600081519050919050565b600081905092915050565b60005b83811015611dba578082015181840152602081019050611d9f565b60008484015250505050565b6000611dd182611d86565b611ddb8185611d91565b9350611deb818560208601611d9c565b80840191505092915050565b6000611e038284611dc6565b91508190509291505056fea2646970667358221220cb2fa78bd55da15cfd142d063cc0a0b58c65dacfe0b69b8b2bcfb556db04c46d64736f6c63430008140033",
  "linkReferences": {},
  "deployedLinkReferences": {}
}